{
  "transactions": [
    {
      "hash": "0x0a3437803b63894b1335f6d16098d3414b25b5dccaa04756681c18c7ef161aff",
      "transactionType": "CALL",
      "contractName": null,
      "contractAddress": "0x6d47123f531573dccb02b3fdde41d2b9d9334c70",
      "function": "setSpeciesInfo(uint256,uint8,bool)",
      "arguments": [
        "1",
        "18",
        "false"
      ],
      "transaction": {
        "from": "0x3470f73b82c557ed90fd07d9ae8b3e276af97df1",
        "to": "0x6d47123f531573dccb02b3fdde41d2b9d9334c70",
        "gas": "0xfba1",
        "value": "0x0",
        "input": "0xc44a6da5000000000000000000000000000000000000000000000000000000000000000100000000000000000000000000000000000000000000000000000000000000120000000000000000000000000000000000000000000000000000000000000000",
        "nonce": "0x4",
        "chainId": "0xa869"
      },
      "additionalContracts": [],
      "isFixedGasLimit": false
    },
    {
      "hash": "0x68f7f4ed9f29e7e112bfc99f704382ea271617b7df705e45b553746b1f91bc41",
      "transactionType": "CALL",
      "contractName": null,
      "contractAddress": "0x402e360c13ffd605b77757965dd384b5d0149b7d",
      "function": "setConfig(uint256,uint64,uint256,bool)",
      "arguments": [
        "1",
        "86400",
        "500",
        "false"
      ],
      "transaction": {
        "from": "0x3470f73b82c557ed90fd07d9ae8b3e276af97df1",
        "to": "0x402e360c13ffd605b77757965dd384b5d0149b7d",
        "gas": "0x19e96",
        "value": "0x0",
        "input": "0x58c3aa420000000000000000000000000000000000000000000000000000000000000001000000000000000000000000000000000000000000000000000000000001518000000000000000000000000000000000000000000000000000000000000001f40000000000000000000000000000000000000000000000000000000000000000",
        "nonce": "0x5",
        "chainId": "0xa869"
      },
      "additionalContracts": [],
      "isFixedGasLimit": false
    },
    {
      "hash": "0xf5fbeb85ff3d3807ed3910e14ba87e5c3761c22faa37a70dddb5403cd9dbb139",
      "transactionType": "CALL",
      "contractName": null,
      "contractAddress": "0x402e360c13ffd605b77757965dd384b5d0149b7d",
      "function": "grantReporter(address)",
      "arguments": [
        "0x3470f73B82C557eD90Fd07D9aE8b3e276af97Df1"
      ],
      "transaction": {
        "from": "0x3470f73b82c557ed90fd07d9ae8b3e276af97df1",
        "to": "0x402e360c13ffd605b77757965dd384b5d0149b7d",
        "gas": "0x1169c",
        "value": "0x0",
        "input": "0xa04c2e150000000000000000000000003470f73b82c557ed90fd07d9ae8b3e276af97df1",
        "nonce": "0x6",
        "chainId": "0xa869"
      },
      "additionalContracts": [],
      "isFixedGasLimit": false
    },
    {
      "hash": "0x38196e792d69133a896d1f3d1e03eff8188c8aa8e05a251b1f946ebdfa5213a4",
      "transactionType": "CALL",
      "contractName": null,
      "contractAddress": "0x6ee257096a66183fdcffc9f875ec05b4b645e6e1",
      "function": "setRisk(uint256,(uint16,uint16,uint16,uint256))",
      "arguments": [
        "1",
        "(5000, 6000, 500, 115792089237316195423570985008687907853269984665640564039457584007913129639935)"
      ],
      "transaction": {
        "from": "0x3470f73b82c557ed90fd07d9ae8b3e276af97df1",
        "to": "0x6ee257096a66183fdcffc9f875ec05b4b645e6e1",
        "gas": "0x178e4",
        "value": "0x0",
        "input": "0x9b1fabe800000000000000000000000000000000000000000000000000000000000000010000000000000000000000000000000000000000000000000000000000001388000000000000000000000000000000000000000000000000000000000000177000000000000000000000000000000000000000000000000000000000000001f4ffffffffffffffffffffffffffffffffffffffffffffffffffffffffffffffff",
        "nonce": "0x7",
        "chainId": "0xa869"
      },
      "additionalContracts": [],
      "isFixedGasLimit": false
    }
  ],
  "receipts": [
    {
      "status": "0x1",
      "cumulativeGasUsed": "0xb62e",
      "logs": [],
      "logsBloom": "0x00000000000000000000000000000000000000000000000000000000000000000000000000000000000000000000000000000000000000000000000000000000000000000000000000000000000000000000000000000000000000000000000000000000000000000000000000000000000000000000000000000000000000000000000000000000000000000000000000000000000000000000000000000000000000000000000000000000000000000000000000000000000000000000000000000000000000000000000000000000000000000000000000000000000000000000000000000000000000000000000000000000000000000000000000000000",
      "type": "0x2",
      "transactionHash": "0x0a3437803b63894b1335f6d16098d3414b25b5dccaa04756681c18c7ef161aff",
      "transactionIndex": "0x0",
      "blockHash": "0x0e961d5a0e442654cd4cd333f25ea29d1a507d17d4273009dd51368381f4a6d0",
      "blockNumber": "0x2d3fa78",
      "gasUsed": "0xb62e",
      "effectiveGasPrice": "0x4",
      "from": "0x3470f73b82c557ed90fd07d9ae8b3e276af97df1",
      "to": "0x6d47123f531573dccb02b3fdde41d2b9d9334c70",
      "contractAddress": null
    },
    {
      "status": "0x1",
      "cumulativeGasUsed": "0x1d1a9",
      "logs": [
        {
          "address": "0x402e360c13ffd605b77757965dd384b5d0149b7d",
          "topics": [
            "0x4c1b01967accb6c54a1cfd9474e902600feebb01f9b039c1481f0bc793ec6a58",
            "0x0000000000000000000000000000000000000000000000000000000000000001"
          ],
          "data": "0x0000000000000000000000000000000000000000000000000000000000000000",
          "blockHash": "0x0e961d5a0e442654cd4cd333f25ea29d1a507d17d4273009dd51368381f4a6d0",
          "blockNumber": "0x2d3fa78",
          "transactionHash": "0x68f7f4ed9f29e7e112bfc99f704382ea271617b7df705e45b553746b1f91bc41",
          "transactionIndex": "0x1",
          "logIndex": "0x0",
          "removed": false
        }
      ],
      "logsBloom": "0x00000000000000000000000000000000000020000000000000000000000000000000000000000000000000000000000000080000000000000000000000040000000000000000000000000000000000000000000000040000000000000000000000000000000000000000000000000000000000000000000000000000000000000000000000000000000000000000000000000000000000000000000000000000000000000000040000000000000000000400000000000000000000000000000000000000000000001000000000000000000000000000000000000000000040000000000000000000000000000000000008000000000000000000000000000000",
      "type": "0x2",
      "transactionHash": "0x68f7f4ed9f29e7e112bfc99f704382ea271617b7df705e45b553746b1f91bc41",
      "transactionIndex": "0x1",
      "blockHash": "0x0e961d5a0e442654cd4cd333f25ea29d1a507d17d4273009dd51368381f4a6d0",
      "blockNumber": "0x2d3fa78",
      "gasUsed": "0x11b7b",
      "effectiveGasPrice": "0x4",
      "from": "0x3470f73b82c557ed90fd07d9ae8b3e276af97df1",
      "to": "0x402e360c13ffd605b77757965dd384b5d0149b7d",
      "contractAddress": null
    },
    {
      "status": "0x1",
      "cumulativeGasUsed": "0x2902a",
      "logs": [
        {
          "address": "0x402e360c13ffd605b77757965dd384b5d0149b7d",
          "topics": [
            "0x2f8788117e7eff1d82e926ec794901d17c78024a50270940304540a733656f0d",
            "0x3204c940063673962b481a0395619b3dbbd137589c419e993978c1c71bcf68ec",
            "0x0000000000000000000000003470f73b82c557ed90fd07d9ae8b3e276af97df1",
            "0x0000000000000000000000003470f73b82c557ed90fd07d9ae8b3e276af97df1"
          ],
          "data": "0x",
          "blockHash": "0x0e961d5a0e442654cd4cd333f25ea29d1a507d17d4273009dd51368381f4a6d0",
          "blockNumber": "0x2d3fa78",
          "transactionHash": "0xf5fbeb85ff3d3807ed3910e14ba87e5c3761c22faa37a70dddb5403cd9dbb139",
          "transactionIndex": "0x2",
          "logIndex": "0x1",
          "removed": false
        }
      ],
      "logsBloom": "0x00000004000000000000000000000004000000000000000000000000000000000000000000000000000000000000000000080000000000000000000000000000000000000000000000000000000000000000000000000000000000000000000000000000000000000000000000000000000000000004000000000000000000000000000000000000000000000000000000000000000000000000000000000000400000000000000000000000000000004000000000000000201000000000000000000000000000001000000000000000000000000000002100000000000000000000000000000000000000000000000008000000000000000000000000000000",
      "type": "0x2",
      "transactionHash": "0xf5fbeb85ff3d3807ed3910e14ba87e5c3761c22faa37a70dddb5403cd9dbb139",
      "transactionIndex": "0x2",
      "blockHash": "0x0e961d5a0e442654cd4cd333f25ea29d1a507d17d4273009dd51368381f4a6d0",
      "blockNumber": "0x2d3fa78",
      "gasUsed": "0xbe81",
      "effectiveGasPrice": "0x4",
      "from": "0x3470f73b82c557ed90fd07d9ae8b3e276af97df1",
      "to": "0x402e360c13ffd605b77757965dd384b5d0149b7d",
      "contractAddress": null
    },
    {
      "status": "0x1",
      "cumulativeGasUsed": "0x3a108",
      "logs": [],
      "logsBloom": "0x00000000000000000000000000000000000000000000000000000000000000000000000000000000000000000000000000000000000000000000000000000000000000000000000000000000000000000000000000000000000000000000000000000000000000000000000000000000000000000000000000000000000000000000000000000000000000000000000000000000000000000000000000000000000000000000000000000000000000000000000000000000000000000000000000000000000000000000000000000000000000000000000000000000000000000000000000000000000000000000000000000000000000000000000000000000",
      "type": "0x2",
      "transactionHash": "0x38196e792d69133a896d1f3d1e03eff8188c8aa8e05a251b1f946ebdfa5213a4",
      "transactionIndex": "0x3",
      "blockHash": "0x0e961d5a0e442654cd4cd333f25ea29d1a507d17d4273009dd51368381f4a6d0",
      "blockNumber": "0x2d3fa78",
      "gasUsed": "0x110de",
      "effectiveGasPrice": "0x4",
      "from": "0x3470f73b82c557ed90fd07d9ae8b3e276af97df1",
      "to": "0x6ee257096a66183fdcffc9f875ec05b4b645e6e1",
      "contractAddress": null
    }
  ],
  "libraries": [],
  "pending": [],
  "returns": {},
  "timestamp": 1762284116688,
  "chain": 43113,
  "commit": "173b641"
}