{
  "transactions": [
    {
      "hash": "0x21bf80e3b3b284b0e03649481f05e946cfca92e7a2843caac88b0f89b0d4671c",
      "transactionType": "CALL",
      "contractName": null,
      "contractAddress": "0x402e360c13ffd605b77757965dd384b5d0149b7d",
      "function": "postPrice(uint256,uint256)",
      "arguments": [
        "1",
        "1180000000"
      ],
      "transaction": {
        "from": "0x3470f73b82c557ed90fd07d9ae8b3e276af97df1",
        "to": "0x402e360c13ffd605b77757965dd384b5d0149b7d",
        "gas": "0x1be13",
        "value": "0x0",
        "input": "0x17c836fa00000000000000000000000000000000000000000000000000000000000000010000000000000000000000000000000000000000000000000000000046555f00",
        "nonce": "0x9",
        "chainId": "0xa869"
      },
      "additionalContracts": [],
      "isFixedGasLimit": false
    }
  ],
  "receipts": [
    {
      "status": "0x1",
      "cumulativeGasUsed": "0x13103",
      "logs": [
        {
          "address": "0x402e360c13ffd605b77757965dd384b5d0149b7d",
          "topics": [
            "0x14ceb84cd88a0d050d11732ef03b7331dd0ae8febd6f09c7be6c9aa5bea6b263",
            "0x0000000000000000000000000000000000000000000000000000000000000001"
          ],
          "data": "0x0000000000000000000000000000000000000000000000000000000046555f000000000000000000000000003470f73b82c557ed90fd07d9ae8b3e276af97df1",
          "blockHash": "0xc62f93747b90316caced35269faee4938997c5d8106b1dc429888c756ffe34cd",
          "blockNumber": "0x2d3fb18",
          "transactionHash": "0x21bf80e3b3b284b0e03649481f05e946cfca92e7a2843caac88b0f89b0d4671c",
          "transactionIndex": "0x0",
          "logIndex": "0x0",
          "removed": false
        }
      ],
      "logsBloom": "0x00000000000000000000000000000000000000000000000000000000000000000000400000000000000000000000000000080000000000000000000000040000000000000000000000000000000000000000000000040000000000000000000000000000000000000000000000000000000000000000000000000000000000000000000000000000000000000000000000000000000000000000002000000000000000000000000000000000000000000000000000000000000000000000000000000000000000001000080000000000000000000000000000000000000040000000000000000000000000000000000008000000000000000000000000000000",
      "type": "0x2",
      "transactionHash": "0x21bf80e3b3b284b0e03649481f05e946cfca92e7a2843caac88b0f89b0d4671c",
      "transactionIndex": "0x0",
      "blockHash": "0xc62f93747b90316caced35269faee4938997c5d8106b1dc429888c756ffe34cd",
      "blockNumber": "0x2d3fb18",
      "gasUsed": "0x13103",
      "effectiveGasPrice": "0x4",
      "from": "0x3470f73b82c557ed90fd07d9ae8b3e276af97df1",
      "to": "0x402e360c13ffd605b77757965dd384b5d0149b7d",
      "contractAddress": null
    }
  ],
  "libraries": [],
  "pending": [],
  "returns": {},
  "timestamp": 1762284297468,
  "chain": 43113,
  "commit": "173b641"
}