{
  "transactions": [
    {
      "hash": "0x19a8b0100b9b8ccf2aff7dd7f1c32b398e512ee3e02ea3feb724e69c98638690",
      "transactionType": "CALL",
      "contractName": null,
      "contractAddress": "0x402e360c13ffd605b77757965dd384b5d0149b7d",
      "function": "postPrice(uint256,uint256)",
      "arguments": [
        "1",
        "1200000000"
      ],
      "transaction": {
        "from": "0x3470f73b82c557ed90fd07d9ae8b3e276af97df1",
        "to": "0x402e360c13ffd605b77757965dd384b5d0149b7d",
        "gas": "0x2018e",
        "value": "0x0",
        "input": "0x17c836fa00000000000000000000000000000000000000000000000000000000000000010000000000000000000000000000000000000000000000000000000047868c00",
        "nonce": "0x8",
        "chainId": "0xa869"
      },
      "additionalContracts": [],
      "isFixedGasLimit": false
    }
  ],
  "receipts": [
    {
      "status": "0x1",
      "cumulativeGasUsed": "0x173cf",
      "logs": [
        {
          "address": "0x402e360c13ffd605b77757965dd384b5d0149b7d",
          "topics": [
            "0x14ceb84cd88a0d050d11732ef03b7331dd0ae8febd6f09c7be6c9aa5bea6b263",
            "0x0000000000000000000000000000000000000000000000000000000000000001"
          ],
          "data": "0x0000000000000000000000000000000000000000000000000000000047868c000000000000000000000000003470f73b82c557ed90fd07d9ae8b3e276af97df1",
          "blockHash": "0xbffdc454e3e21919f517cffae5febed06df1779e2ee2f900fbf4b8921349c3a9",
          "blockNumber": "0x2d3fb08",
          "transactionHash": "0x19a8b0100b9b8ccf2aff7dd7f1c32b398e512ee3e02ea3feb724e69c98638690",
          "transactionIndex": "0x0",
          "logIndex": "0x0",
          "removed": false
        }
      ],
      "logsBloom": "0x00000000000000000000000000000000000000000000000000000000000000000000400000000000000000000000000000080000000000000000000000040000000000000000000000000000000000000000000000040000000000000000000000000000000000000000000000000000000000000000000000000000000000000000000000000000000000000000000000000000000000000000002000000000000000000000000000000000000000000000000000000000000000000000000000000000000000001000080000000000000000000000000000000000000040000000000000000000000000000000000008000000000000000000000000000000",
      "type": "0x2",
      "transactionHash": "0x19a8b0100b9b8ccf2aff7dd7f1c32b398e512ee3e02ea3feb724e69c98638690",
      "transactionIndex": "0x0",
      "blockHash": "0xbffdc454e3e21919f517cffae5febed06df1779e2ee2f900fbf4b8921349c3a9",
      "blockNumber": "0x2d3fb08",
      "gasUsed": "0x173cf",
      "effectiveGasPrice": "0x4",
      "from": "0x3470f73b82c557ed90fd07d9ae8b3e276af97df1",
      "to": "0x402e360c13ffd605b77757965dd384b5d0149b7d",
      "contractAddress": null
    }
  ],
  "libraries": [],
  "pending": [],
  "returns": {},
  "timestamp": 1762284279871,
  "chain": 43113,
  "commit": "173b641"
}