{
  "transactions": [
    {
      "hash": "0x935d42c74ceef4ec529e8de8c725e358350600f748b62a363ce04c496a6b25e0",
      "transactionType": "CALL",
      "contractName": null,
      "contractAddress": "0x6d47123f531573dccb02b3fdde41d2b9d9334c70",
      "function": "setSpeciesInfo(uint256,uint8,bool)",
      "arguments": [
        "3",
        "18",
        "false"
      ],
      "transaction": {
        "from": "0x3470f73b82c557ed90fd07d9ae8b3e276af97df1",
        "to": "0x6d47123f531573dccb02b3fdde41d2b9d9334c70",
        "gas": "0xfba1",
        "value": "0x0",
        "input": "0xc44a6da5000000000000000000000000000000000000000000000000000000000000000300000000000000000000000000000000000000000000000000000000000000120000000000000000000000000000000000000000000000000000000000000000",
        "nonce": "0x19",
        "chainId": "0xa869"
      },
      "additionalContracts": [],
      "isFixedGasLimit": false
    },
    {
      "hash": "0xcf647ac83483a13666b6c949e57f4b5976a38426de066075cad1469567e9019d",
      "transactionType": "CALL",
      "contractName": null,
      "contractAddress": "0x402e360c13ffd605b77757965dd384b5d0149b7d",
      "function": "setConfig(uint256,uint64,uint256,bool)",
      "arguments": [
        "3",
        "86400",
        "500",
        "false"
      ],
      "transaction": {
        "from": "0x3470f73b82c557ed90fd07d9ae8b3e276af97df1",
        "to": "0x402e360c13ffd605b77757965dd384b5d0149b7d",
        "gas": "0x19e96",
        "value": "0x0",
        "input": "0x58c3aa420000000000000000000000000000000000000000000000000000000000000003000000000000000000000000000000000000000000000000000000000001518000000000000000000000000000000000000000000000000000000000000001f40000000000000000000000000000000000000000000000000000000000000000",
        "nonce": "0x1a",
        "chainId": "0xa869"
      },
      "additionalContracts": [],
      "isFixedGasLimit": false
    },
    {
      "hash": "0x1998fac8fd9d1439afdcc5bc4063ea949a0518100f912cda7af73154e11554d7",
      "transactionType": "CALL",
      "contractName": null,
      "contractAddress": "0x402e360c13ffd605b77757965dd384b5d0149b7d",
      "function": "grantReporter(address)",
      "arguments": [
        "0x3470f73B82C557eD90Fd07D9aE8b3e276af97Df1"
      ],
      "transaction": {
        "from": "0x3470f73b82c557ed90fd07d9ae8b3e276af97df1",
        "to": "0x402e360c13ffd605b77757965dd384b5d0149b7d",
        "gas": "0x8f27",
        "value": "0x0",
        "input": "0xa04c2e150000000000000000000000003470f73b82c557ed90fd07d9ae8b3e276af97df1",
        "nonce": "0x1b",
        "chainId": "0xa869"
      },
      "additionalContracts": [],
      "isFixedGasLimit": false
    },
    {
      "hash": "0xad452a9f0616cc3f713178d2b7b7707286a7bd4a68aa717b955be360680026f0",
      "transactionType": "CALL",
      "contractName": null,
      "contractAddress": "0x402e360c13ffd605b77757965dd384b5d0149b7d",
      "function": "postPrice(uint256,uint256)",
      "arguments": [
        "3",
        "350000000"
      ],
      "transaction": {
        "from": "0x3470f73b82c557ed90fd07d9ae8b3e276af97df1",
        "to": "0x402e360c13ffd605b77757965dd384b5d0149b7d",
        "gas": "0x21fd6",
        "value": "0x0",
        "input": "0x17c836fa00000000000000000000000000000000000000000000000000000000000000030000000000000000000000000000000000000000000000000000000014dc9380",
        "nonce": "0x1c",
        "chainId": "0xa869"
      },
      "additionalContracts": [],
      "isFixedGasLimit": false
    },
    {
      "hash": "0x4da5537993a5a0f8e5c6696e844cd117dbad70b2bb8f3982fc27eb1302359870",
      "transactionType": "CALL",
      "contractName": null,
      "contractAddress": "0x402e360c13ffd605b77757965dd384b5d0149b7d",
      "function": "postPrice(uint256,uint256)",
      "arguments": [
        "3",
        "348000000"
      ],
      "transaction": {
        "from": "0x3470f73b82c557ed90fd07d9ae8b3e276af97df1",
        "to": "0x402e360c13ffd605b77757965dd384b5d0149b7d",
        "gas": "0x1be13",
        "value": "0x0",
        "input": "0x17c836fa00000000000000000000000000000000000000000000000000000000000000030000000000000000000000000000000000000000000000000000000014be0f00",
        "nonce": "0x1d",
        "chainId": "0xa869"
      },
      "additionalContracts": [],
      "isFixedGasLimit": false
    },
    {
      "hash": "0x70552f49ab61dc2138236b358a38758634181ca84b7b727a58c7aa8d0a3e5343",
      "transactionType": "CALL",
      "contractName": null,
      "contractAddress": "0x402e360c13ffd605b77757965dd384b5d0149b7d",
      "function": "postPrice(uint256,uint256)",
      "arguments": [
        "3",
        "352000000"
      ],
      "transaction": {
        "from": "0x3470f73b82c557ed90fd07d9ae8b3e276af97df1",
        "to": "0x402e360c13ffd605b77757965dd384b5d0149b7d",
        "gas": "0x1be13",
        "value": "0x0",
        "input": "0x17c836fa00000000000000000000000000000000000000000000000000000000000000030000000000000000000000000000000000000000000000000000000014fb1800",
        "nonce": "0x1e",
        "chainId": "0xa869"
      },
      "additionalContracts": [],
      "isFixedGasLimit": false
    },
    {
      "hash": "0x266e1f4e03133ea4c34312385813517d5030cd191b97131e6772f52e776a8420",
      "transactionType": "CALL",
      "contractName": null,
      "contractAddress": "0x402e360c13ffd605b77757965dd384b5d0149b7d",
      "function": "accept(uint256)",
      "arguments": [
        "3"
      ],
      "transaction": {
        "from": "0x3470f73b82c557ed90fd07d9ae8b3e276af97df1",
        "to": "0x402e360c13ffd605b77757965dd384b5d0149b7d",
        "gas": "0x1b226",
        "value": "0x0",
        "input": "0x19b05f490000000000000000000000000000000000000000000000000000000000000003",
        "nonce": "0x1f",
        "chainId": "0xa869"
      },
      "additionalContracts": [],
      "isFixedGasLimit": false
    },
    {
      "hash": "0xb5a91b083d331463a0e554783f4461c745287bb4e1e2d42c1ccdf5d97278747c",
      "transactionType": "CALL",
      "contractName": null,
      "contractAddress": "0x6ee257096a66183fdcffc9f875ec05b4b645e6e1",
      "function": "setRisk(uint256,(uint16,uint16,uint16,uint256))",
      "arguments": [
        "3",
        "(3500, 5000, 800, 115792089237316195423570985008687907853269984665640564039457584007913129639935)"
      ],
      "transaction": {
        "from": "0x3470f73b82c557ed90fd07d9ae8b3e276af97df1",
        "to": "0x6ee257096a66183fdcffc9f875ec05b4b645e6e1",
        "gas": "0x178e4",
        "value": "0x0",
        "input": "0x9b1fabe800000000000000000000000000000000000000000000000000000000000000030000000000000000000000000000000000000000000000000000000000000dac00000000000000000000000000000000000000000000000000000000000013880000000000000000000000000000000000000000000000000000000000000320ffffffffffffffffffffffffffffffffffffffffffffffffffffffffffffffff",
        "nonce": "0x20",
        "chainId": "0xa869"
      },
      "additionalContracts": [],
      "isFixedGasLimit": false
    },
    {
      "hash": "0x863e8b940d001a8879ec276f5b9849258cf5a3cb4821a4c978fc0f77633c8075",
      "transactionType": "CALL",
      "contractName": null,
      "contractAddress": "0x6d47123f531573dccb02b3fdde41d2b9d9334c70",
      "function": "mint(address,uint256,uint256,bytes)",
      "arguments": [
        "0x3470f73B82C557eD90Fd07D9aE8b3e276af97Df1",
        "3",
        "500000000000000000000",
        "0x"
      ],
      "transaction": {
        "from": "0x3470f73b82c557ed90fd07d9ae8b3e276af97df1",
        "to": "0x6d47123f531573dccb02b3fdde41d2b9d9334c70",
        "gas": "0x11f72",
        "value": "0x0",
        "input": "0x731133e90000000000000000000000003470f73b82c557ed90fd07d9ae8b3e276af97df1000000000000000000000000000000000000000000000000000000000000000300000000000000000000000000000000000000000000001b1ae4d6e2ef50000000000000000000000000000000000000000000000000000000000000000000800000000000000000000000000000000000000000000000000000000000000000",
        "nonce": "0x21",
        "chainId": "0xa869"
      },
      "additionalContracts": [],
      "isFixedGasLimit": false
    },
    {
      "hash": "0xf5a76dc69957fcc31ae18f1b46a47e602149f4575db219fe8685d4130f0b1ece",
      "transactionType": "CALL",
      "contractName": null,
      "contractAddress": "0x6d47123f531573dccb02b3fdde41d2b9d9334c70",
      "function": "setApprovalForAll(address,bool)",
      "arguments": [
        "0x6eE257096A66183FDCfFC9f875ec05B4b645E6E1",
        "true"
      ],
      "transaction": {
        "from": "0x3470f73b82c557ed90fd07d9ae8b3e276af97df1",
        "to": "0x6d47123f531573dccb02b3fdde41d2b9d9334c70",
        "gas": "0x8de9",
        "value": "0x0",
        "input": "0xa22cb4650000000000000000000000006ee257096a66183fdcffc9f875ec05b4b645e6e10000000000000000000000000000000000000000000000000000000000000001",
        "nonce": "0x22",
        "chainId": "0xa869"
      },
      "additionalContracts": [],
      "isFixedGasLimit": false
    },
    {
      "hash": "0xd53d46c37f29a81c62f5a7458543f21c36a3d135da552e80554867a947c2cd1c",
      "transactionType": "CALL",
      "contractName": null,
      "contractAddress": "0x64ca76c191d11511b2cbcda0f263a10920ba8ec7",
      "function": "mint(address,uint256)",
      "arguments": [
        "0x6eE257096A66183FDCfFC9f875ec05B4b645E6E1",
        "50000000000"
      ],
      "transaction": {
        "from": "0x3470f73b82c557ed90fd07d9ae8b3e276af97df1",
        "to": "0x64ca76c191d11511b2cbcda0f263a10920ba8ec7",
        "gas": "0xb87b",
        "value": "0x0",
        "input": "0x40c10f190000000000000000000000006ee257096a66183fdcffc9f875ec05b4b645e6e10000000000000000000000000000000000000000000000000000000ba43b7400",
        "nonce": "0x23",
        "chainId": "0xa869"
      },
      "additionalContracts": [],
      "isFixedGasLimit": false
    },
    {
      "hash": "0x6626bf083963c21540dcd1bdc57fd44b79ba090b2b6e6aff36cc26b33f623d49",
      "transactionType": "CALL",
      "contractName": null,
      "contractAddress": "0x6ee257096a66183fdcffc9f875ec05b4b645e6e1",
      "function": "deposit(uint256,uint256)",
      "arguments": [
        "3",
        "300000000000000000000"
      ],
      "transaction": {
        "from": "0x3470f73b82c557ed90fd07d9ae8b3e276af97df1",
        "to": "0x6ee257096a66183fdcffc9f875ec05b4b645e6e1",
        "gas": "0x1c29f",
        "value": "0x0",
        "input": "0xe2bbb158000000000000000000000000000000000000000000000000000000000000000300000000000000000000000000000000000000000000001043561a8829300000",
        "nonce": "0x24",
        "chainId": "0xa869"
      },
      "additionalContracts": [],
      "isFixedGasLimit": false
    },
    {
      "hash": "0x8ae159883a240f90a39ba81d5e6759d9a21fb27f7cc38572a94587b76a62e3c2",
      "transactionType": "CALL",
      "contractName": null,
      "contractAddress": "0x6ee257096a66183fdcffc9f875ec05b4b645e6e1",
      "function": "borrow(uint256)",
      "arguments": [
        "200000000"
      ],
      "transaction": {
        "from": "0x3470f73b82c557ed90fd07d9ae8b3e276af97df1",
        "to": "0x6ee257096a66183fdcffc9f875ec05b4b645e6e1",
        "gas": "0x2ec2c",
        "value": "0x0",
        "input": "0xc5ebeaec000000000000000000000000000000000000000000000000000000000bebc200",
        "nonce": "0x25",
        "chainId": "0xa869"
      },
      "additionalContracts": [],
      "isFixedGasLimit": false
    }
  ],
  "receipts": [
    {
      "status": "0x1",
      "cumulativeGasUsed": "0xb62e",
      "logs": [],
      "logsBloom": "0x00000000000000000000000000000000000000000000000000000000000000000000000000000000000000000000000000000000000000000000000000000000000000000000000000000000000000000000000000000000000000000000000000000000000000000000000000000000000000000000000000000000000000000000000000000000000000000000000000000000000000000000000000000000000000000000000000000000000000000000000000000000000000000000000000000000000000000000000000000000000000000000000000000000000000000000000000000000000000000000000000000000000000000000000000000000",
      "type": "0x2",
      "transactionHash": "0x935d42c74ceef4ec529e8de8c725e358350600f748b62a363ce04c496a6b25e0",
      "transactionIndex": "0x0",
      "blockHash": "0x9ed5465cd3ee2445378f1710ec302989550677984be66008289c0209a6dd0799",
      "blockNumber": "0x2d4053e",
      "gasUsed": "0xb62e",
      "effectiveGasPrice": "0x2",
      "from": "0x3470f73b82c557ed90fd07d9ae8b3e276af97df1",
      "to": "0x6d47123f531573dccb02b3fdde41d2b9d9334c70",
      "contractAddress": null
    },
    {
      "status": "0x1",
      "cumulativeGasUsed": "0x11b7b",
      "logs": [
        {
          "address": "0x402e360c13ffd605b77757965dd384b5d0149b7d",
          "topics": [
            "0x4c1b01967accb6c54a1cfd9474e902600feebb01f9b039c1481f0bc793ec6a58",
            "0x0000000000000000000000000000000000000000000000000000000000000003"
          ],
          "data": "0x0000000000000000000000000000000000000000000000000000000000000000",
          "blockHash": "0x36246b4ade2d791ab4495ff15c63c3879e413bec2a835b817ee1fe8f5dd2dd5c",
          "blockNumber": "0x2d4053f",
          "transactionHash": "0xcf647ac83483a13666b6c949e57f4b5976a38426de066075cad1469567e9019d",
          "transactionIndex": "0x0",
          "logIndex": "0x0",
          "removed": false
        }
      ],
      "logsBloom": "0x00000000000000000000000000000000000020000000000000000000000000000000000000000000000000000000000000080000020000000000000000000000000000000000000000000000000000000000000000000000000000000000000000000000000000000000000000000000000000000000000000000000000000000000000000000000000000000000000000000000000000000000000000000000000000000000040000000000000000000400000000800000000000000000400000000000000000001000000000000000000000000000000000000000000000000000000000000000000000000000000008000000000000000000000000000000",
      "type": "0x2",
      "transactionHash": "0xcf647ac83483a13666b6c949e57f4b5976a38426de066075cad1469567e9019d",
      "transactionIndex": "0x0",
      "blockHash": "0x36246b4ade2d791ab4495ff15c63c3879e413bec2a835b817ee1fe8f5dd2dd5c",
      "blockNumber": "0x2d4053f",
      "gasUsed": "0x11b7b",
      "effectiveGasPrice": "0x2",
      "from": "0x3470f73b82c557ed90fd07d9ae8b3e276af97df1",
      "to": "0x402e360c13ffd605b77757965dd384b5d0149b7d",
      "contractAddress": null
    },
    {
      "status": "0x1",
      "cumulativeGasUsed": "0x1831f",
      "logs": [],
      "logsBloom": "0x00000000000000000000000000000000000000000000000000000000000000000000000000000000000000000000000000000000000000000000000000000000000000000000000000000000000000000000000000000000000000000000000000000000000000000000000000000000000000000000000000000000000000000000000000000000000000000000000000000000000000000000000000000000000000000000000000000000000000000000000000000000000000000000000000000000000000000000000000000000000000000000000000000000000000000000000000000000000000000000000000000000000000000000000000000000",
      "type": "0x2",
      "transactionHash": "0x1998fac8fd9d1439afdcc5bc4063ea949a0518100f912cda7af73154e11554d7",
      "transactionIndex": "0x1",
      "blockHash": "0x36246b4ade2d791ab4495ff15c63c3879e413bec2a835b817ee1fe8f5dd2dd5c",
      "blockNumber": "0x2d4053f",
      "gasUsed": "0x67a4",
      "effectiveGasPrice": "0x2",
      "from": "0x3470f73b82c557ed90fd07d9ae8b3e276af97df1",
      "to": "0x402e360c13ffd605b77757965dd384b5d0149b7d",
      "contractAddress": null
    },
    {
      "status": "0x1",
      "cumulativeGasUsed": "0x2f6fa",
      "logs": [
        {
          "address": "0x402e360c13ffd605b77757965dd384b5d0149b7d",
          "topics": [
            "0x14ceb84cd88a0d050d11732ef03b7331dd0ae8febd6f09c7be6c9aa5bea6b263",
            "0x0000000000000000000000000000000000000000000000000000000000000003"
          ],
          "data": "0x0000000000000000000000000000000000000000000000000000000014dc93800000000000000000000000003470f73b82c557ed90fd07d9ae8b3e276af97df1",
          "blockHash": "0x36246b4ade2d791ab4495ff15c63c3879e413bec2a835b817ee1fe8f5dd2dd5c",
          "blockNumber": "0x2d4053f",
          "transactionHash": "0xad452a9f0616cc3f713178d2b7b7707286a7bd4a68aa717b955be360680026f0",
          "transactionIndex": "0x2",
          "logIndex": "0x1",
          "removed": false
        }
      ],
      "logsBloom": "0x00000000000000000000000000000000000000000000000000000000000000000000400000000000000000000000000000080000020000000000000000000000000000000000000000000000000000000000000000000000000000000000000000000000000000000000000000000000000000000000000000000000000000000000000000000000000000000000000000000000000000000000002000000000000000000000000000000000000000000000000000800000000000000000400000000000000000001000080000000000000000000000000000000000000000000000000000000000000000000000000008000000000000000000000000000000",
      "type": "0x2",
      "transactionHash": "0xad452a9f0616cc3f713178d2b7b7707286a7bd4a68aa717b955be360680026f0",
      "transactionIndex": "0x2",
      "blockHash": "0x36246b4ade2d791ab4495ff15c63c3879e413bec2a835b817ee1fe8f5dd2dd5c",
      "blockNumber": "0x2d4053f",
      "gasUsed": "0x173db",
      "effectiveGasPrice": "0x2",
      "from": "0x3470f73b82c557ed90fd07d9ae8b3e276af97df1",
      "to": "0x402e360c13ffd605b77757965dd384b5d0149b7d",
      "contractAddress": null
    },
    {
      "status": "0x1",
      "cumulativeGasUsed": "0x427fd",
      "logs": [
        {
          "address": "0x402e360c13ffd605b77757965dd384b5d0149b7d",
          "topics": [
            "0x14ceb84cd88a0d050d11732ef03b7331dd0ae8febd6f09c7be6c9aa5bea6b263",
            "0x0000000000000000000000000000000000000000000000000000000000000003"
          ],
          "data": "0x0000000000000000000000000000000000000000000000000000000014be0f000000000000000000000000003470f73b82c557ed90fd07d9ae8b3e276af97df1",
          "blockHash": "0x36246b4ade2d791ab4495ff15c63c3879e413bec2a835b817ee1fe8f5dd2dd5c",
          "blockNumber": "0x2d4053f",
          "transactionHash": "0x4da5537993a5a0f8e5c6696e844cd117dbad70b2bb8f3982fc27eb1302359870",
          "transactionIndex": "0x3",
          "logIndex": "0x2",
          "removed": false
        }
      ],
      "logsBloom": "0x00000000000000000000000000000000000000000000000000000000000000000000400000000000000000000000000000080000020000000000000000000000000000000000000000000000000000000000000000000000000000000000000000000000000000000000000000000000000000000000000000000000000000000000000000000000000000000000000000000000000000000000002000000000000000000000000000000000000000000000000000800000000000000000400000000000000000001000080000000000000000000000000000000000000000000000000000000000000000000000000008000000000000000000000000000000",
      "type": "0x2",
      "transactionHash": "0x4da5537993a5a0f8e5c6696e844cd117dbad70b2bb8f3982fc27eb1302359870",
      "transactionIndex": "0x3",
      "blockHash": "0x36246b4ade2d791ab4495ff15c63c3879e413bec2a835b817ee1fe8f5dd2dd5c",
      "blockNumber": "0x2d4053f",
      "gasUsed": "0x13103",
      "effectiveGasPrice": "0x2",
      "from": "0x3470f73b82c557ed90fd07d9ae8b3e276af97df1",
      "to": "0x402e360c13ffd605b77757965dd384b5d0149b7d",
      "contractAddress": null
    },
    {
      "status": "0x1",
      "cumulativeGasUsed": "0x55900",
      "logs": [
        {
          "address": "0x402e360c13ffd605b77757965dd384b5d0149b7d",
          "topics": [
            "0x14ceb84cd88a0d050d11732ef03b7331dd0ae8febd6f09c7be6c9aa5bea6b263",
            "0x0000000000000000000000000000000000000000000000000000000000000003"
          ],
          "data": "0x0000000000000000000000000000000000000000000000000000000014fb18000000000000000000000000003470f73b82c557ed90fd07d9ae8b3e276af97df1",
          "blockHash": "0x36246b4ade2d791ab4495ff15c63c3879e413bec2a835b817ee1fe8f5dd2dd5c",
          "blockNumber": "0x2d4053f",
          "transactionHash": "0x70552f49ab61dc2138236b358a38758634181ca84b7b727a58c7aa8d0a3e5343",
          "transactionIndex": "0x4",
          "logIndex": "0x3",
          "removed": false
        }
      ],
      "logsBloom": "0x00000000000000000000000000000000000000000000000000000000000000000000400000000000000000000000000000080000020000000000000000000000000000000000000000000000000000000000000000000000000000000000000000000000000000000000000000000000000000000000000000000000000000000000000000000000000000000000000000000000000000000000002000000000000000000000000000000000000000000000000000800000000000000000400000000000000000001000080000000000000000000000000000000000000000000000000000000000000000000000000008000000000000000000000000000000",
      "type": "0x2",
      "transactionHash": "0x70552f49ab61dc2138236b358a38758634181ca84b7b727a58c7aa8d0a3e5343",
      "transactionIndex": "0x4",
      "blockHash": "0x36246b4ade2d791ab4495ff15c63c3879e413bec2a835b817ee1fe8f5dd2dd5c",
      "blockNumber": "0x2d4053f",
      "gasUsed": "0x13103",
      "effectiveGasPrice": "0x2",
      "from": "0x3470f73b82c557ed90fd07d9ae8b3e276af97df1",
      "to": "0x402e360c13ffd605b77757965dd384b5d0149b7d",
      "contractAddress": null
    },
    {
      "status": "0x1",
      "cumulativeGasUsed": "0x681db",
      "logs": [
        {
          "address": "0x402e360c13ffd605b77757965dd384b5d0149b7d",
          "topics": [
            "0xb76abbe4f718d3a5437da4640abcd02e3a2e2975873bd4b168d55f8df507780b",
            "0x0000000000000000000000000000000000000000000000000000000000000003"
          ],
          "data": "0x0000000000000000000000000000000000000000000000000000000014dc9380",
          "blockHash": "0x36246b4ade2d791ab4495ff15c63c3879e413bec2a835b817ee1fe8f5dd2dd5c",
          "blockNumber": "0x2d4053f",
          "transactionHash": "0x266e1f4e03133ea4c34312385813517d5030cd191b97131e6772f52e776a8420",
          "transactionIndex": "0x5",
          "logIndex": "0x4",
          "removed": false
        }
      ],
      "logsBloom": "0x00000000000000000000000000000000000000000000000000000000000000000000020000000000000000000000000000080000020000000000000000000000000800000000000000000000000000000000000000000000000000000000000000000000000000000000000000000000000000000000000000000000000000000000000000000000000000000000000000000000000000000000000000000000000000000000000000000000000000000000000000800000000000000000400000000000000000001000000000000000000000000000000000000000000000000000000000000000000000000000004008000000000000000000000000000000",
      "type": "0x2",
      "transactionHash": "0x266e1f4e03133ea4c34312385813517d5030cd191b97131e6772f52e776a8420",
      "transactionIndex": "0x5",
      "blockHash": "0x36246b4ade2d791ab4495ff15c63c3879e413bec2a835b817ee1fe8f5dd2dd5c",
      "blockNumber": "0x2d4053f",
      "gasUsed": "0x128db",
      "effectiveGasPrice": "0x2",
      "from": "0x3470f73b82c557ed90fd07d9ae8b3e276af97df1",
      "to": "0x402e360c13ffd605b77757965dd384b5d0149b7d",
      "contractAddress": null
    },
    {
      "status": "0x1",
      "cumulativeGasUsed": "0x792b9",
      "logs": [],
      "logsBloom": "0x00000000000000000000000000000000000000000000000000000000000000000000000000000000000000000000000000000000000000000000000000000000000000000000000000000000000000000000000000000000000000000000000000000000000000000000000000000000000000000000000000000000000000000000000000000000000000000000000000000000000000000000000000000000000000000000000000000000000000000000000000000000000000000000000000000000000000000000000000000000000000000000000000000000000000000000000000000000000000000000000000000000000000000000000000000000",
      "type": "0x2",
      "transactionHash": "0xb5a91b083d331463a0e554783f4461c745287bb4e1e2d42c1ccdf5d97278747c",
      "transactionIndex": "0x6",
      "blockHash": "0x36246b4ade2d791ab4495ff15c63c3879e413bec2a835b817ee1fe8f5dd2dd5c",
      "blockNumber": "0x2d4053f",
      "gasUsed": "0x110de",
      "effectiveGasPrice": "0x2",
      "from": "0x3470f73b82c557ed90fd07d9ae8b3e276af97df1",
      "to": "0x6ee257096a66183fdcffc9f875ec05b4b645e6e1",
      "contractAddress": null
    },
    {
      "status": "0x1",
      "cumulativeGasUsed": "0x862d5",
      "logs": [
        {
          "address": "0x6d47123f531573dccb02b3fdde41d2b9d9334c70",
          "topics": [
            "0xc3d58168c5ae7397731d063d5bbf3d657854427343f4c083240f7aacaa2d0f62",
            "0x0000000000000000000000003470f73b82c557ed90fd07d9ae8b3e276af97df1",
            "0x0000000000000000000000000000000000000000000000000000000000000000",
            "0x0000000000000000000000003470f73b82c557ed90fd07d9ae8b3e276af97df1"
          ],
          "data": "0x000000000000000000000000000000000000000000000000000000000000000300000000000000000000000000000000000000000000001b1ae4d6e2ef500000",
          "blockHash": "0x36246b4ade2d791ab4495ff15c63c3879e413bec2a835b817ee1fe8f5dd2dd5c",
          "blockNumber": "0x2d4053f",
          "transactionHash": "0x863e8b940d001a8879ec276f5b9849258cf5a3cb4821a4c978fc0f77633c8075",
          "transactionIndex": "0x7",
          "logIndex": "0x5",
          "removed": false
        }
      ],
      "logsBloom": "0x00000000000000000000000000000004000000000000000000000000000000000000000000000000000000000000000000000000000000000000000000002000000000000000000000000000000000000000000000000000000000000000000000000000020000000000000000000800000000000000000000000000000000000000000000000000000004000000000000000000000000000000000000000000000000000000000000000000000000000000000000000000200400000000000000000000000000000000000000000000000000000008002000000000000020000000080000000000000000000000000000000000000000000000080000000000",
      "type": "0x2",
      "transactionHash": "0x863e8b940d001a8879ec276f5b9849258cf5a3cb4821a4c978fc0f77633c8075",
      "transactionIndex": "0x7",
      "blockHash": "0x36246b4ade2d791ab4495ff15c63c3879e413bec2a835b817ee1fe8f5dd2dd5c",
      "blockNumber": "0x2d4053f",
      "gasUsed": "0xd01c",
      "effectiveGasPrice": "0x2",
      "from": "0x3470f73b82c557ed90fd07d9ae8b3e276af97df1",
      "to": "0x6d47123f531573dccb02b3fdde41d2b9d9334c70",
      "contractAddress": null
    },
    {
      "status": "0x1",
      "cumulativeGasUsed": "0x8c994",
      "logs": [
        {
          "address": "0x6d47123f531573dccb02b3fdde41d2b9d9334c70",
          "topics": [
            "0x17307eab39ab6107e8899845ad3d59bd9653f200f220920489ca2b5937696c31",
            "0x0000000000000000000000003470f73b82c557ed90fd07d9ae8b3e276af97df1",
            "0x0000000000000000000000006ee257096a66183fdcffc9f875ec05b4b645e6e1"
          ],
          "data": "0x0000000000000000000000000000000000000000000000000000000000000001",
          "blockHash": "0x36246b4ade2d791ab4495ff15c63c3879e413bec2a835b817ee1fe8f5dd2dd5c",
          "blockNumber": "0x2d4053f",
          "transactionHash": "0xf5a76dc69957fcc31ae18f1b46a47e602149f4575db219fe8685d4130f0b1ece",
          "transactionIndex": "0x8",
          "logIndex": "0x6",
          "removed": false
        }
      ],
      "logsBloom": "0x00000000000000000000000000000004000000000000000000000000000000000000000000000000000000000000000000000000000000000000000000000000000000200000000000000000000000000000000000000000000000000000000002000000000000000000000000000000000000000000000000000000000000000000000000000000000004000000000000000000000000000400000000000000000000000000000000000800000000000000000000000000200400000000000000000000000000000000000000000000000000000000002000000000000000000000280800000000000000000000000000000000000000000000000000000000",
      "type": "0x2",
      "transactionHash": "0xf5a76dc69957fcc31ae18f1b46a47e602149f4575db219fe8685d4130f0b1ece",
      "transactionIndex": "0x8",
      "blockHash": "0x36246b4ade2d791ab4495ff15c63c3879e413bec2a835b817ee1fe8f5dd2dd5c",
      "blockNumber": "0x2d4053f",
      "gasUsed": "0x66bf",
      "effectiveGasPrice": "0x2",
      "from": "0x3470f73b82c557ed90fd07d9ae8b3e276af97df1",
      "to": "0x6d47123f531573dccb02b3fdde41d2b9d9334c70",
      "contractAddress": null
    },
    {
      "status": "0x1",
      "cumulativeGasUsed": "0x94f24",
      "logs": [
        {
          "address": "0x64ca76c191d11511b2cbcda0f263a10920ba8ec7",
          "topics": [
            "0xddf252ad1be2c89b69c2b068fc378daa952ba7f163c4a11628f55a4df523b3ef",
            "0x0000000000000000000000000000000000000000000000000000000000000000",
            "0x0000000000000000000000006ee257096a66183fdcffc9f875ec05b4b645e6e1"
          ],
          "data": "0x0000000000000000000000000000000000000000000000000000000ba43b7400",
          "blockHash": "0x36246b4ade2d791ab4495ff15c63c3879e413bec2a835b817ee1fe8f5dd2dd5c",
          "blockNumber": "0x2d4053f",
          "transactionHash": "0xd53d46c37f29a81c62f5a7458543f21c36a3d135da552e80554867a947c2cd1c",
          "transactionIndex": "0x9",
          "logIndex": "0x7",
          "removed": false
        }
      ],
      "logsBloom": "0x00000000000000000000000000000000000000000000000000000000000000000000000000008000000000000000000000000000000000000000000000000000000000200000000000000008000000000000000000000000000000000000000000000100020000000000000000000800000000000000000000000010000000000000000000000000000000000000000000000000000000000400000000000000000000000000000000000800000000000000000000000000000001000000000000000002000000000000000000000000000000000000000000000000000020000000000000000000000000000000000000000000000000000000000000000000",
      "type": "0x2",
      "transactionHash": "0xd53d46c37f29a81c62f5a7458543f21c36a3d135da552e80554867a947c2cd1c",
      "transactionIndex": "0x9",
      "blockHash": "0x36246b4ade2d791ab4495ff15c63c3879e413bec2a835b817ee1fe8f5dd2dd5c",
      "blockNumber": "0x2d4053f",
      "gasUsed": "0x8590",
      "effectiveGasPrice": "0x2",
      "from": "0x3470f73b82c557ed90fd07d9ae8b3e276af97df1",
      "to": "0x64ca76c191d11511b2cbcda0f263a10920ba8ec7",
      "contractAddress": null
    },
    {
      "status": "0x1",
      "cumulativeGasUsed": "0xa9563",
      "logs": [
        {
          "address": "0x6d47123f531573dccb02b3fdde41d2b9d9334c70",
          "topics": [
            "0xc3d58168c5ae7397731d063d5bbf3d657854427343f4c083240f7aacaa2d0f62",
            "0x0000000000000000000000006ee257096a66183fdcffc9f875ec05b4b645e6e1",
            "0x0000000000000000000000003470f73b82c557ed90fd07d9ae8b3e276af97df1",
            "0x0000000000000000000000006ee257096a66183fdcffc9f875ec05b4b645e6e1"
          ],
          "data": "0x000000000000000000000000000000000000000000000000000000000000000300000000000000000000000000000000000000000000001043561a8829300000",
          "blockHash": "0x36246b4ade2d791ab4495ff15c63c3879e413bec2a835b817ee1fe8f5dd2dd5c",
          "blockNumber": "0x2d4053f",
          "transactionHash": "0x6626bf083963c21540dcd1bdc57fd44b79ba090b2b6e6aff36cc26b33f623d49",
          "transactionIndex": "0xa",
          "logIndex": "0x8",
          "removed": false
        }
      ],
      "logsBloom": "0x00000000000000000000000000000004000000000000000000000000000000000000000000000000000000000000000000000000000000000000000000002000000000200000000000000000000000000000000000000000000000000000000000000000000000000000000000000000000000000000000000000000000000000000000000000000000004000000000000000000000000000400000000000000000000000000000000000800000000000000000000000000200400000000000000000000000000000000000000000000000000000008002000000000000000000000080000000000000000000000000000000000000000000000080000000000",
      "type": "0x2",
      "transactionHash": "0x6626bf083963c21540dcd1bdc57fd44b79ba090b2b6e6aff36cc26b33f623d49",
      "transactionIndex": "0xa",
      "blockHash": "0x36246b4ade2d791ab4495ff15c63c3879e413bec2a835b817ee1fe8f5dd2dd5c",
      "blockNumber": "0x2d4053f",
      "gasUsed": "0x1463f",
      "effectiveGasPrice": "0x2",
      "from": "0x3470f73b82c557ed90fd07d9ae8b3e276af97df1",
      "to": "0x6ee257096a66183fdcffc9f875ec05b4b645e6e1",
      "contractAddress": null
    },
    {
      "status": "0x1",
      "cumulativeGasUsed": "0xc94f6",
      "logs": [
        {
          "address": "0x64ca76c191d11511b2cbcda0f263a10920ba8ec7",
          "topics": [
            "0xddf252ad1be2c89b69c2b068fc378daa952ba7f163c4a11628f55a4df523b3ef",
            "0x0000000000000000000000006ee257096a66183fdcffc9f875ec05b4b645e6e1",
            "0x0000000000000000000000003470f73b82c557ed90fd07d9ae8b3e276af97df1"
          ],
          "data": "0x000000000000000000000000000000000000000000000000000000000bebc200",
          "blockHash": "0x36246b4ade2d791ab4495ff15c63c3879e413bec2a835b817ee1fe8f5dd2dd5c",
          "blockNumber": "0x2d4053f",
          "transactionHash": "0x8ae159883a240f90a39ba81d5e6759d9a21fb27f7cc38572a94587b76a62e3c2",
          "transactionIndex": "0xb",
          "logIndex": "0x9",
          "removed": false
        }
      ],
      "logsBloom": "0x00000000000000000000000000000004000000000000000000000000000000000000000000008000000000000000000000000000000000000000000000000000000000200000000000000008000000000000000000000000000000000000000000000100000000000000000000000000000000000000000000000010000000000000000000000000000000000000000000000000000000000400000000000000000000000000000000000800000000000000000000000000200001000000000000000002000000000000000000000000000000000000002000000000000000000000000000000000000000000000000000000000000000000000000000000000",
      "type": "0x2",
      "transactionHash": "0x8ae159883a240f90a39ba81d5e6759d9a21fb27f7cc38572a94587b76a62e3c2",
      "transactionIndex": "0xb",
      "blockHash": "0x36246b4ade2d791ab4495ff15c63c3879e413bec2a835b817ee1fe8f5dd2dd5c",
      "blockNumber": "0x2d4053f",
      "gasUsed": "0x1ff93",
      "effectiveGasPrice": "0x2",
      "from": "0x3470f73b82c557ed90fd07d9ae8b3e276af97df1",
      "to": "0x6ee257096a66183fdcffc9f875ec05b4b645e6e1",
      "contractAddress": null
    }
  ],
  "libraries": [],
  "pending": [],
  "returns": {},
  "timestamp": 1762290505849,
  "chain": 43113,
  "commit": "78fba8a"
}